:100000000C94D2000C94FA000C94FA000C94FA00B0
:100010000C94FA000C94FA000C94FA000C94FA0078
:100020000C94FA000C94FA000C94B20D0C945F0C32
:100030000C94FA000C94FA000C94FA000C94FA0058
:100040000C94FA000C94FA000C94FA000C94FA0048
:100050000C94FA000C94FA000C94FA000C94D3035C
:100060000C94FA000C94E9070C941B080C94FA0009
:100070000C94FA000C94FA000C94FA000C94FA0018
:100080000C94FA000C94FA000C94FA000C94FA0008
:100090000C94FA000C94FA000C94FA000C94FA00F8
:1000A0000C94FA000C94FA000C94FA000000000280
:1000B00000090F0000030401000C00000408020105
:1000C000104080401020408040800804020101025E
:1000D00010204080108010204040040404040403D9
:1000E00004050202020204030202020206060606D8
:1000F0000606040402020204000000002300260099
:1001000029002C002F0000000000250028002B00F3
:100110002E00310000000000240027002A002D00DE
:100120003000080B00020202000009040000010276
:10013000020000052400100105240101010424022D
:10014000060524060001070581031000400904018B
:1001500000020A00000007050202400000070583B4
:100160000240000012010002EF0201408D0E01ABBF
:100170000001010203014D6564696154656B204C07
:10018000616273004C696E6B497420536D617274C7
:1001900020373638382044756F0004030904800185
:1001A000A0064B0811241FBECFEFDAE0DEBFCDBFA3
:1001B00011E0A0E0B1E0ECEAF2E202C005900D929D
:1001C000A439B107D9F722E0A4E9B1E001C01D923A
:1001D000A43BB207E1F710E0C2EDD0E004C02197E4
:1001E000FE010E944E11CF3CD107C9F70E94440E78
:1001F0000C9454110C94000026E040E855E260E0B5
:1002000070E081E092E00E948D0767E384E991E06D
:100210000C94A8018F929F92AF92BF92CF92DF92DF
:10022000EF92FF9260E084E991E00E948A034B0123
:100230005C0140E060E084E991E00E94FA026B0119
:100240007C01AC019B010E942711811108C0A5010E
:100250009401C501B4010E9427118823A1F063E134
:1002600071E081E092E00E94C70868E873E180E0F5
:1002700090E0FF90EF90DF90CF90BF90AF909F9075
:100280008F900C944E0461E371E081E092E00E9453
:10029000B4086BE271E081E092E00E94B40863E38D
:1002A00071E081E092E00E94B40822E030E0B50104
:1002B000A40181E092E00E94210A60E471E081E003
:1002C00092E00E94B40862E471E081E092E00E9452
:1002D000B40822E030E0B701A60181E092E00E947C
:1002E000210A6EE571E081E092E00E94B40862E5C7
:1002F00071E081E092E00E94B4086DE571E0B1CF59
:1003000026E04BE062E184E991E00C948701DC0196
:1003100015966C93159716964C93169770E0FB0103
:10032000E454FF4FE4911796EC93179766527F4F72
:10033000FB01649118966C93189740E45FE160E0CC
:1003400070E01D964D935D936D937C935097089547
:100350001F93CF93DF93EC01162F62E08D810E94F3
:1003600032050E941D04605D77408109910969870B
:100370007A878B879C871A8BDF91CF911F91089585
:10038000CF92DF92EF92FF92CF93DF93DC0117962B
:10039000CC911797D0E06111DC2F18962C9118970B
:1003A00030E0220F331F28503F4F50E040E0F9016A
:1003B00085919491FC01F080BA0190E080E0EF2DEE
:1003C000EC23ED1310C04F5F5F4F1D96CD90DD9075
:1003D000ED90FC9050976C157D058E059F0538F3C8
:1003E0006FEF7FEFCB01DF91CF91FF90EF90DF9028
:1003F000CF9008958F929F92AF92BF92CF92DF924B
:10040000EF92FF920F931F93CF93DF93CDB7DEB799
:10041000C054D1400FB6F894DEBF0FBECDBF8C01E3
:10042000F62E0E941D04F11029C0F801C184D28467
:10043000E384F4849B01AC012C193D094E095F094A
:1004400069017A0130EDC31637E0D306E104F10407
:10045000A8F48189C05CDE4F0FB6F894DEBF0FBEF2
:10046000CDBFDF91CF911F910F91FF90EF90DF9063
:10047000CF90BF90AF909F908F900895F8016187C3
:10048000728783879487148213821282118210826A
:1004900062E085810E94320561E070E080E090E0DA
:1004A0000E944E0461E0F80185810E94320560E0FF
:1004B000F80185810E946E05F801868185518230A0
:1004C000E8F48CE494E00E94870462E0F8018581FE
:1004D0000E943205F801828990E00E948704F89416
:1004E00060E0C8010E94C0016F3F7F4F8F4F9F4F58
:1004F00061F4F801118A789480E0ACCF64E170E097
:1005000080E090E00E944E04E0CF61E0C8010E94CC
:10051000C0016F3F7F4F8F4F9F4F59F39E012F5F59
:100520003F4F79015E013FEBA31A3EEFB30A67012B
:1005300060E0C8010E94C001F6016083718382837C
:10054000938361E0C8010E94C001F6016483758352
:1005500086839783F8E0CF0ED11CCA14DB0441F7E1
:10056000789430E020E0F70180809180A280B38011
:100570004481558166817781FFEF8F169F06AF0614
:10058000BF0631F04F3F8FEF58076807780719F41F
:10059000F801118AB1CFF90183E0F595E7958A95C5
:1005A000E1F7E00FF11F8081880F84169506A606FB
:1005B000B706F0F080832F5F3F4FF8E0EF0EF11C9D
:1005C0002832310581F6F801448120818181280F8C
:1005D0003327331F8281280F311D8381820F932F90
:1005E000911D99274817190699F681E0818B32CF22
:1005F0008160E0CFCF92DF92EF92FF920F931F9333
:10060000CF93DF938C01C62F642F0E94FA018823B9
:1006100041F0F80186818C3009F45DC038F48B30EC
:10062000E1F060E070E080EC9FE74CC085518230E3
:10063000C0F7D2816D2F70E0762F662766277F770F
:100640008381682B90E080E00E9403102DEC3CEC4D
:100650004CEC5DE30E94BA1059C0628170E090E0FA
:1006600080E00E9403106B017C01F801D381D7FF69
:100670000AC0AC019B0160E070E080E89FEB0E9443
:10068000F00E6B017C01DF706D2F70E090E080E078
:100690000E9405102DEC3CEC4CEC5DE30E94BA107E
:1006A000A70196010E94F10ECC2361F026E636E602
:1006B00046EE5FE30E94BA1020E030E040E052E4F2
:1006C0000E94F10EDF91CF911F910F91FF90EF905B
:1006D000DF90CF900895D2816D2F70E090E080E0A0
:1006E0000E9403106B017C01F80163816F7070E060
:1006F00090E080E00E9405102DEC3CEC4CEC5DE3BA
:100700000E94BA10A70196010E94F10ED7FFCCCF2C
:100710009058CACFCF92DF92EF92FF92CF93DF93A0
:10072000EC010E94FA01882341F08E818B3028F081
:100730008D3040F08551823030F160E070E080EC27
:100740009FE71AC0698170E090E080E00E94051088
:100750002DEC3CEC4CEC5DE30E94BA106B017C018B
:10076000688170E090E080E00E9405109B01AC0180
:10077000C701B6010E94F10EDF91CF91FF90EF907B
:10078000DF90CF9008956881798176276727762753
:1007900090E080E00E9403102DEC3CEC4CEC5DE31B
:1007A0000E94BA10E9CF1F920F920FB60F92112438
:1007B0002F933F938F939F93AF93BF938091A80103
:1007C0009091A901A091AA01B091AB013091A7012C
:1007D00026E0230F2D3758F50296A11DB11D209359
:1007E000A7018093A8019093A901A093AA01B093B7
:1007F000AB018091AC019091AD01A091AE01B0919F
:10080000AF010196A11DB11D8093AC019093AD0184
:10081000A093AE01B093AF01BF91AF919F918F9123
:100820003F912F910F900FBE0F901F90189529E8C0
:10083000230F0396A11DB11DD2CF2FB7F89460915D
:10084000A8017091A9018091AA019091AB012FBFDD
:1008500008953FB7F8948091AC019091AD01A091BB
:10086000AE01B091AF0126B5A89B05C02F3F19F08E
:100870000196A11DB11D3FBFBA2FA92F982F882720
:10088000BC01CD01620F711D811D911D43E0660FFA
:10089000771F881F991F4A95D1F708958F929F92CD
:1008A000AF92BF92CF92DF92EF92FF926B017C01E9
:1008B0000E9429044B015C01C114D104E104F1043C
:1008C000E9F00E94570E0E942904681979098A09E3
:1008D0009B09683E73408105910570F321E0C21ABF
:1008E000D108E108F10888EE880E83E0981EA11C6B
:1008F000B11CC114D104E104F10429F7FF90EF9079
:10090000DF90CF90BF90AF909F908F9008958330ED
:10091000910528F0880F991F04970197F1F7089522
:10092000789484B5826084BD84B5816084BD85B5CA
:10093000826085BD85B5816085BDEEE6F0E0808191
:1009400081608083E1E8F0E01082808182608083B2
:10095000808181608083E0E8F0E080818160808335
:10096000E1E9F0E080818260808380818160808322
:10097000E0E9F0E0808181608083E1ECF0E080815B
:1009800084608083808182608083808181608083B5
:10099000E3ECF0E0808181608083E0ECF0E0808136
:1009A00082608083E2ECF0E0808181608083EAE70E
:1009B000F0E0808184608083808182608083808198
:1009C0008E7F8083808180688083089581508F30FE
:1009D00008F047C0E82FF0E0E051FB4F0C944E11B7
:1009E0000D051105FF040505090531053105310522
:1009F00014051A051E052205280531052C058091D0
:100A000080008F77809380000895809180008F7D93
:100A1000F9CF80918000877FF5CF84B58F7784BD33
:100A2000089584B58F7DFBCF809190008F77809360
:100A300090000895809190008F7DF9CF8091900073
:100A4000877FF5CF8091C0008F778093C000089595
:100A50008091C0008F7DF9CF8091C200877F809305
:100A6000C2000895CF93DF9390E0FC01E454FF4F60
:100A7000249186529F4FFC0184918823C9F090E015
:100A8000880F991FFC01EC5EFE4FA591B491FC010B
:100A9000EA5FFE4FC591D49161110DC09FB7F894E4
:100AA0008C91209582238C938881282328839FBF53
:100AB000DF91CF910895623051F49FB7F8943C9143
:100AC000822F809583238C93E8812E2BEFCF8FB7D5
:100AD000F894EC912E2B2C938FBFEACF1F93CF93DA
:100AE000DF93282F30E0F901E455FF4F8491F9019D
:100AF000E454FF4FD491F901E652FF4FC491CC2347
:100B0000A9F0162F81110E94E604EC2FF0E0EE0F01
:100B1000FF1FEA5FFE4FA591B4918FB7F894EC9157
:100B2000111108C0D095DE23DC938FBFDF91CF91E8
:100B30001F910895DE2BF8CFCF93DF931F92CDB78F
:100B4000DEB76983DC01ED91FC910280F381E02D39
:100B500041E050E0BE016F5F7F4F09950F90DF913C
:100B6000CF910895CF93DF93EC018C859D8597FFFE
:100B700005C082E00E94230B9D878C878C859D8514
:100B8000DF91CF91089583E00E943A0B90E00895A1
:100B900083E00C94A80DFC018485958597FD06C023
:100BA00082E00E94D20A90E00196089582E00E94BD
:100BB000D20A90E00895FC018485958597FD05C0D3
:100BC0002FEF3FEF35872487089582E00C94230BA5
:100BD000CF93DF93EC0180910B01882331F083E008
:100BE0000E94540B1816190634F081E090E09B83A4
:100BF0008A8380E090E0DF91CF910895EEEFFFE7E8
:100C00002591349181E02B3F3C4D09F080E008951F
:100C1000FC0190819E5F908342E450E062E271E0CB
:100C200080E80C94060CFC0181819081913A61F47A
:100C3000813209F083C047E050E064E071E080E079
:100C40000E94060C81E00895913209F077C083324A
:100C500069F482819381B0E0A0E0809300019093D9
:100C60000101A0930201B0930301ECCF803239F46B
:100C700067E070E084E091E00E942C0CE3CF8232C8
:100C800009F7828180930B010E94FE05E0E0F8E005
:100C9000882311F0EEEFFAE08091040190910501B4
:100CA000A0910601B0910701803B9440A105B105D8
:100CB000D9F480910B0180FD17C0EE3F8AE0F80760
:100CC00071F587E797E79183808380916000809337
:100CD000000288E19BE00FB6F894A895809360002D
:100CE0000FBE90936000AECF808191818737974788
:100CF00009F0A8CFA895809160008861809360007A
:100D00008091000280936000EE3F8AE0F80789F04E
:100D10008091FE0A9091FF0A9183808393CF808116
:100D200091818737980769F29093FF0A8093FE0AB2
:100D3000C8CF1092FF0A1092FE0A84CF80E0089577
:100D4000E0EBF1E01382128288EE93E0A0E0B0E0E5
:100D500084839583A683B78384E691E0918380831F
:100D60008FEF9FEF958784870895FC01918D228DE9
:100D7000892F90E0805C9F4F821B91098F73992788
:100D80000895FC01918D828D981731F0828DE80FC6
:100D9000F11D858D90E008958FEF9FEF0895FC0180
:100DA000918D828D981761F0A28DAE0FBF2FB11D6E
:100DB0005D968C91928D9F5F9F73928F90E00895C6
:100DC0008FEF9FEF0895FC01538D448D252F30E068
:100DD000842F90E0821B930B541710F0CF96089548
:100DE0000197089581E498E0892B49F080E090E034
:100DF000892B29F00E94410881110C94000008956C
:100E0000FC01A48DA80FB92FB11DA35ABF4F2C917F
:100E1000848D90E001968F739927848FA689B78976
:100E20002C93A089B1898C9182748C93938D848D3D
:100E3000981306C00288F389E02D80818F7D80831E
:100E40000895CF93DF93EC01888D8823B9F0AA89A8
:100E5000BB89E889F9898C9185FD03C0808186FD75
:100E60000DC00FB607FCF7CF8C9185FFF2CF8081C4
:100E700085FFEDCFCE010E940007E9CFDF91CF9132
:100E80000895EF92FF920F931F93CF93DF93EC019E
:100E900081E0888F9B8D8C8D981319C0E889F98922
:100EA000808185FF14C09FB7F894EE89FF89608325
:100EB000E889F9898081827480839FBF81E090E016
:100EC000DF91CF911F910F91FF90EF900895F62E33
:100ED0000B8D10E00F5F1F4F0F731127E02E8C8DCD
:100EE0008E110CC00FB607FCFACFE889F989808112
:100EF00085FFF5CFCE010E940007F1CFEB8DEC0FFF
:100F0000FD2FF11DE35AFF4FF0829FB7F8940B8F2E
:100F1000EA89FB8980818062CFCFCF92DF92EF9206
:100F2000FF921F93CF93DF93EC016A017B01122F95
:100F300060E874E88EE190E0A70196010E942C1110
:100F40002150310941095109569547953795279503
:100F5000E889F98982E08083211580E1380798F0DB
:100F6000E889F989108260E472E48FE090E0A701DB
:100F700096010E942C1121503109410951095695C1
:100F8000479537952795EC85FD853083EE85FF8560
:100F90002083188EEC89FD891083EA89FB89808182
:100FA00080618083EA89FB89808188608083EA8907
:100FB000FB89808180688083EA89FB8980818F7DBD
:100FC0008083DF91CF911F91FF90EF90DF90CF90C2
:100FD00008951F920F920FB60F9211242F938F93A3
:100FE0009F93EF93FF93E0911102F09112028081A1
:100FF000E0911702F091180282FD1BC09081809150
:101000001A028F5F8F7320911B02821741F0E091CB
:101010001A02F0E0EF5FFD4F958F80931A02FF9167
:10102000EF919F918F912F910F900FBE0F901F9076
:1010300018958081F4CF1F920F920FB60F92112452
:101040002F933F934F935F936F937F938F939F93D0
:10105000AF93BF93EF93FF9381E092E00E9400076C
:10106000FF91EF91BF91AF919F918F917F916F9180
:101070005F914F913F912F910F900FBE0F901F9056
:10108000189581E092E00E94B50621E0892B09F4D1
:1010900020E0822F0895E1E0F2E01382128288EED0
:1010A00093E0A0E0B0E084839583A683B78386E7CE
:1010B00091E0918380838DEC90E0958784878CEC20
:1010C00090E09787868788EC90E0918B808B89EC05
:1010D00090E0938B828B8AEC90E0958B848B8EECE6
:1010E00090E0978B868B118E128E138E148E08953E
:1010F000AF92BF92CF92DF92EF92FF920F931F9326
:10110000CF93DF936C017B018B01040F151FEB0163
:101110005E01AE18BF08C017D10759F06991D6011A
:10112000ED91FC910190F081E02DC6010995892B8C
:1011300079F7C501DF91CF911F910F91FF90EF904B
:10114000DF90CF90BF90AF900895FB0101900020F9
:10115000E9F73197AF01461B570BDC01ED91FC918C
:101160000280F381E02D09946115710511F00C9452
:10117000A50890E080E00895DC01ED91FC910190DC
:10118000F081E02D099464E871E00C94A5080F93B8
:101190001F93CF93DF938C01D0E0C0E06115710500
:1011A00019F00E94A508EC01C8010E94C3088C0F29
:1011B0009D1FDF91CF911F910F9108958F929F9264
:1011C000AF92BF92EF92FF920F931F93CF93DF9353
:1011D000CDB7DEB7A1970FB6F894DEBF0FBECDBF77
:1011E0007C01FA01CB0119A2223008F42AE08E0119
:1011F0000F5D1F4F822E912CB12CA12CBF01A50198
:1012000094010E942C11F901CA016A300CF5605D4D
:10121000D8016E938D01232B242B252B79F790E099
:1012200080E0109721F0BD01C7010E94A508A1969A
:101230000FB6F894DEBF0FBECDBFDF91CF911F91E7
:101240000F91FF90EF90BF90AF909F908F90089577
:10125000695CDECF2115310541F4DC01ED91FC9193
:101260000190F081E02D642F09940C94DE089A011E
:10127000AB0170E060E00C942A092F923F924F92EC
:101280005F926F927F928F929F92AF92BF92CF9216
:10129000DF92EF92FF921F93CF93DF93EC016A01ED
:1012A0007B01722EAB019601CB01B6010E94271182
:1012B00067E871E0811126C046015701E894B7F84C
:1012C0002FEF3FEF4FE75FE7C501B4010E94271101
:1012D00081110CC02FEF3FEF4FE75FE7C501B4016D
:1012E0000E945D0F6BE871E0181664F02FEF3FEF7E
:1012F0004FE75FE4C701B6010E94B5101816B4F4B9
:101300006FE871E0CE01DF91CF911F91FF90EF90D8
:10131000DF90CF90BF90AF909F908F907F906F9015
:101320005F904F903F902F900C94A5082FEF3FEFC8
:101330004FE75FECC701B6010E945D0F87FDE0CF6C
:1013400020E030E0A901C701B6010E945D0F312CF9
:10135000212C87FF09C06DE2CE010E94BC081C0150
:10136000F7FAF094F7F8F09410E060E070E080E0B5
:101370009FE3711641F020E030E040E251E40E942A
:10138000620F1F5FF6CFA70196010E94F10E2B019D
:101390003C010E94D40F4B015C012AE0BC01A40176
:1013A000CE010E94DE087C01E20CF31C1123B1F196
:1013B000C501B4010E9403109B01AC01C301B2013D
:1013C0000E94F00E4B015C016EE2CE010E94BC084F
:1013D000E80EF91E115010F120E030E040E251E437
:1013E000C501B4010E94BA102B013C010E94D40F28
:1013F0004B014AE050E0CE010E943709E80EF91E89
:10140000B40190E080E00E9403109B01AC01C30195
:10141000B2010E94F00E4B015C01DCCFC701DF91ED
:10142000CF911F91FF90EF90DF90CF90BF90AF9042
:101430009F908F907F906F905F904F903F902F90F4
:1014400008950C943D09615030F02091F100FC01A9
:1014500020830196F8CF289884E68093A602089509
:101460004091A1025091A20220919F023091A002CE
:1014700042175307B4F49091E8009570E1F390910E
:10148000E80092FD19C08093F1008091A102909133
:10149000A20201968F739927892B19F48EEF8093FE
:1014A000E8008091A1029091A20201969093A2027D
:1014B0008093A10281E0089580E00895EF92FF9269
:1014C0000F931F93CF93DF93F82E192FE62E042F3F
:1014D00081E0860F880F0E94300A83E00E94300A64
:1014E000CF2DD12FEC0EFD2EF11CCE15DF05B9F05E
:1014F00007FF13C0FE0184910E94300A182F80E07C
:101500000E94300A812321968111EFCFDF91CF9184
:101510001F910F91FF90EF9008958881EDCF81E0AA
:10152000F5CF8091D70081608093D70080EA8093C7
:10153000D80089B58F7E89BD89B5826089BD09B41F
:1015400000FEFDCF61E070E080E090E00E944E047C
:101550008091D8008F7C80618093D8008091E000DA
:10156000807F8093E0000895CF93DF931F92CDB7E3
:10157000DEB71982CE0101960E9408060E94DC0E99
:10158000BE016F5F7F4F0E94580E89810F90DF91DF
:10159000CF9108952FB7FC012083F8946770609372
:1015A000E9000895CF93DF931F92CDB7DEB7682F80
:1015B000CE0101960E94CA0A8091F20099819FBFD4
:1015C0000F90DF91CF910895EF92FF920F931F93A9
:1015D000CF93DF931F92CDB7DEB79091A5029923E9
:1015E00079F157FD2DC08A017B01682FCE0101964C
:1015F0000E94CA0A8091F20090E0081719070CF4C3
:10160000C801282FF70144E6215038F0289840936C
:10161000A6023091F1003193F7CF009739F0209175
:10162000F200211103C02BE62093E80029812FBF8F
:101630000F90DF91CF911F910F91FF90EF90089540
:101640008FEF9FEFF5CFCF93DF931F92CDB7DEB72C
:1016500041E050E0BE016F5F7F4F0E94E40A0197B6
:1016600031F4898190E00F90DF91CF9108958FEF51
:101670009FEFF9CFCF93DF931F92CDB7DEB7682FDF
:10168000CE0101960E94CA0A9091E800892F8072CB
:1016900095FF04C09091F20080E4891B99819FBF5F
:1016A0000F90DF91CF9108955F926F927F928F920A
:1016B0009F92AF92BF92CF92DF92EF92FF920F93E1
:1016C0001F93CF93DF931F92CDB7DEB7982E6B0198
:1016D000B42E052F8091A502811113C08FEF9FEFCB
:1016E0000F90DF91CF911F910F91FF90EF90DF90BE
:1016F000CF90BF90AF909F908F907F906F905F90B2
:1017000008958091A30280FF05C08091E00082606F
:101710008093E000EB2CF02EA12C8AEF882E892DEF
:101720008072682E892D8074582E9AE3792EE114E8
:10173000F10419F4AA2009F457C0892D0E943A0B2C
:10174000182F81110AC08A94882041F261E070E06C
:1017500080E090E00E944E04EACF8E151F0411F045
:101760000CF01E2D692DCE0101960E94CA0A8091AF
:10177000E80085FD03C089818FBFD9CF812F90E01C
:10178000E81AF90A662029F01150A0F01092F10031
:10179000FBCFF60197FC0AC0115050F02191209325
:1017A000F100FACF24912093F10031961150D0F737
:1017B000C80ED91EAA2021F07092E800A12CDBCF20
:1017C0008091E80085FD08C07092E800AA24A394E7
:1017D000E114F10481F2F2CFE114F10461F6552035
:1017E00051F27092E800C7CF5D9884E68093A7021B
:1017F0008B2D902F75CF1092E9001092A2021092BB
:10180000A1029093A00280939F020895DF92EF922D
:10181000FF920F931F93CF93DF93D82E8A01EB0192
:101820007B01E40EF51ECE15DF0559F0D7FE12C080
:10183000FE0184910E94300A21968111F4CF0FEFAE
:101840001FEFC801DF91CF911F910F91FF90EF9093
:10185000DF9008958881EECFAF92BF92DF92EF9232
:10186000FF920F931F93CF93DF935C018B01EB01EA
:101870009BEFD92E2097C1F07E01C134D1051CF019
:1018800080E4E82EF12C8091E80082FFFCCFC801B3
:101890008C1B9D0B6E2D8A0D9B1D0E94230AD092DE
:1018A000E800CE19DF09E6CFC801DF91CF911F9183
:1018B0000F91FF90EF90DF90BF90AF9008951F922F
:1018C0000F920FB60F921124EF92FF920F931F9376
:1018D0002F933F934F935F936F937F938F939F9338
:1018E000AF93BF93EF93FF93CF93DF93CDB7DEB763
:1018F0006C97DEBFCDBF1092E9008091E80083FFB6
:1019000025C068E0CE0145960E94230A82EF8093AD
:10191000E8008D8987FF37C09091E80090FFFCCFE9
:10192000982F907609F000C19E894F89588D2F8994
:10193000188D91112FC0803851F58091A4028093A9
:10194000F1001092F1008EEF8093E8006C960FB6D4
:10195000F894DEBF0FBECDBFDF91CF91FF91EF9125
:10196000BF91AF919F918F917F916F915F914F91B7
:101970003F912F911F910F91FF90EF900F900FBE0D
:101980000F901F9018959EEF9093E800C9CF10928A
:10199000F100D7CF913059F48111D5CF41305105A5
:1019A00091F68091A4028D7F8093A402CCCF9330D6
:1019B00049F48111C8CF4130510529F68091A40224
:1019C0008260F2CF953041F48091E80080FFFCCF37
:1019D00020682093E300B7CF963009F077C0EB8CF6
:1019E000FC8C123039F590E080E00E94FB0B0E94E5
:1019F000B40A1F8299E099831A8391E09E8390EA4A
:101A000098879AEF99872091A1023091A202275FCF
:101A10003F4F3C832B838D83C7010E94FB0B49E022
:101A200050E0BE016F5F7F4F80E00E94060C0E9475
:101A3000B40A89CFC7010E94FB0B0E94DC0EBE01D5
:101A40006B5E7F4F0E94800E009731F00CF07BCFD1
:101A500081E28093EB007ACF113061F11330C1F74E
:101A60008F89882381F1823049F440E865E184E878
:101A700091E00E945E0A882359F365CF813029F4F2
:101A800040E86DE086E791E0F4CF833009F70E94EB
:101A9000DC0E8E010F5F1F4FB8010E949F0EF801F0
:101AA00001900020E9F73197BF01601B710B40E006
:101AB000C801DFCF64E671E0FB01449150E080E8AB
:101AC0000E94060C40CF6AE971E0F6CF973009F426
:101AD000BFCF983021F481E08093F10034CF99306A
:101AE00009F031CF837009F0B3CFEDE0F1E081E090
:101AF00031E096E32191222371F08093E900309345
:101B0000EB00DF0111972C912093EC009093ED00F6
:101B10008F5F873079F78EE78093EA001092EA00B2
:101B20008F898093A5020FCF8B8D9C8D0E94FB0B1C
:101B3000898D811105C0CE0145960E9413069BCF69
:101B40000E94DC0EBE016B5E7F4F0E94BE0E93CFE3
:101B50008093E9008091F200882319F08AE3809352
:101B6000E80008951F920F920FB60F9211242F9341
:101B70003F934F935F936F937F938F939F93AF9315
:101B8000BF93CF93EF93FF93C091E1008091E10069
:101B9000837F8093E100C3FF0FC01092E90081E0D2
:101BA0008093EB001092EC0082E38093ED001092A2
:101BB000A50288E08093F000C2FF1BC083E00E9472
:101BC000A80D8091A702882341F08091A70281503F
:101BD0008093A702811101C05D9A8091A60288239B
:101BE00041F08091A60281508093A602811101C02C
:101BF000289AC4FF23C08091E2008E7E816080938A
:101C0000E2008091E1008F7E8093E1008091A30249
:101C10008E7E80618093A302FF91EF91CF91BF915F
:101C2000AF919F918F917F916F915F914F913F9174
:101C30002F910F900FBE0F901F901895C0FFECCF03
:101C40008091E2008E7E80618093E2008091E100CD
:101C50008E7E8093E1008091A3028E7E8160DACF38
:101C60001092A5021092A4021092A3020E94910A5F
:101C7000E1EEF0E080818E7E80838DE08093E20053
:101C8000559A209A089508950E9490040E94430E48
:101C90008EE992E00E94300E0E94FC00C2EFD6E076
:101CA0000E940A012097E1F30E94F206F9CF0895FD
:101CB000EF92FF920F931F93CF93DF937B01FC0171
:101CC000C281D38110E000E0209791F0E881F98192
:101CD0000280F381E02DB701CE01099597FD06C082
:101CE000080F191F0884D985C02DEECF0FEF1FEF05
:101CF000C801DF91CF911F910F91FF90EF90089550
:101D00000F931F93CF93DF938B01FC01C281D3818B
:101D1000209771F0E881F9810480F581E02DB80108
:101D2000CE010995009731F40884D985C02DF0CFF4
:101D300090E080E0DF91CF911F910F9108950F9374
:101D40001F93CF93DF938B01FC01C281D381209736
:101D500071F0E881F9810680F781E02DB801CE01AC
:101D60000995080F111D0884D985C02DF0CFF80101
:101D70001082DF91CF911F910F9108950F931F93C0
:101D8000CF93DF938B01FC01C281D381209771F047
:101D9000E881F9810190F081E02DB801CE0109952B
:101DA000811105C00884D985C02DF0CF80E0DF9176
:101DB000CF911F910F9108958091A80281110DC0BC
:101DC00082E08093B00284E08093B1021092B3026B
:101DD0001092B20281E08093A80280EB92E0089515
:101DE0005058BB27AA270E94080F0C947B100E9412
:101DF0006D1038F00E94741020F039F49F3F19F4F0
:101E000026F40C946A100EF4E095E7FB0C94641031
:101E1000E92F0E948C1058F3BA17620773078407E2
:101E2000950720F079F4A6F50C94AE100EF4E09529
:101E30000B2EBA2FA02D0B01B90190010C01CA0184
:101E4000A0011124FF27591B99F0593F50F4503E2F
:101E500068F11A16F040A22F232F342F4427585F21
:101E6000F3CF469537952795A795F0405395C9F739
:101E70007EF41F16BA0B620B730B840BBAF09150F1
:101E8000A1F0FF0FBB1F661F771F881FC2F70EC090
:101E9000BA0F621F731F841F48F487957795679563
:101EA000B795F7959E3F08F0B0CF9395880F08F04F
:101EB0009927EE0F9795879508950E94401008F492
:101EC00081E008950E94760F0C947B100E9474109C
:101ED00058F00E946D1040F029F45F3F29F00C94F7
:101EE000641051110C94AF100C946A100E948C1065
:101EF00068F39923B1F3552391F3951B550BBB2739
:101F0000AA2762177307840738F09F5F5F4F220F7D
:101F1000331F441FAA1FA9F335D00E2E3AF0E0E874
:101F200032D091505040E695001CCAF72BD0FE2FBE
:101F300029D0660F771F881FBB1F26173707480752
:101F4000AB07B0E809F0BB0B802DBF01FF2793580A
:101F50005F4F3AF09E3F510578F00C9464100C945A
:101F6000AF105F3FE4F3983ED4F38695779567957D
:101F7000B795F7959F5FC9F7880F911D969587953F
:101F800097F90895E1E0660F771F881FBB1F62175E
:101F900073078407BA0720F0621B730B840BBA0B1C
:101FA000EE1F88F7E09508950E94941088F09F57DF
:101FB00098F0B92F9927B751B0F0E1F0660F771F6D
:101FC000881F991F1AF0BA95C9F714C0B13091F063
:101FD0000E94AE10B1E008950C94AE10672F782FD8
:101FE0008827B85F39F0B93FCCF386957795679528
:101FF000B395D9F73EF490958095709561957F4F94
:102000008F4F9F4F0895E89409C097FB3EF4909539
:102010008095709561957F4F8F4F9F4F9923A9F0C1
:10202000F92F96E9BB279395F69587957795679550
:10203000B795F111F8CFFAF4BB0F11F460FF1BC094
:102040006F5F7F4F8F4F9F4F16C0882311F096E927
:1020500011C0772321F09EE8872F762F05C06623D5
:1020600071F096E8862F70E060E02AF09A95660F8E
:10207000771F881FDAF7880F9695879597F9089547
:10208000990F0008550FAA0BE0E8FEEF1616170689
:10209000E807F907C0F012161306E407F50798F0F1
:1020A000621B730B840B950B39F40A2661F0232B0A
:1020B000242B252B21F408950A2609F4A140A69586
:1020C0008FEF811D811D089597F99F6780E870E06B
:1020D00060E008959FEF80EC089500240A9416169E
:1020E000170618060906089500240A941216130606
:1020F000140605060895092E0394000C11F4882394
:1021000052F0BB0F40F4BF2B11F460FF04C06F5FAF
:102110007F4F8F4F9F4F089557FD9058440F551F85
:1021200059F05F3F71F04795880F97FB991F61F059
:102130009F3F79F087950895121613061406551FD0
:10214000F2CF4695F1DF08C0161617061806991F3C
:10215000F1CF86957105610508940895E894BB2731
:1021600066277727CB0197F908950E94401008F45D
:102170008FEF08950E94CD100C947B100E946D107B
:1021800038F00E94741020F0952311F00C94641024
:102190000C946A1011240C94AF100E948C1070F3F0
:1021A000959FC1F3950F50E0551F629FF001729FFC
:1021B000BB27F00DB11D639FAA27F00DB11DAA1F0B
:1021C000649F6627B00DA11D661F829F2227B00D58
:1021D000A11D621F739FB00DA11D621F839FA00DE3
:1021E000611D221F749F3327A00D611D231F849F33
:1021F000600D211D822F762F6A2F11249F5750408A
:102200009AF0F1F088234AF0EE0FFF1FBB1F661F04
:10221000771F881F91505040A9F79E3F510580F0CD
:102220000C9464100C94AF105F3FE4F3983ED4F329
:10223000869577956795B795F795E7959F5FC1F771
:10224000FE2B880F911D9695879597F908950E940A
:102250004010880B990B0895A1E21A2EAA1BBB1BF4
:10226000FD010DC0AA1FBB1FEE1FFF1FA217B30762
:10227000E407F50720F0A21BB30BE40BF50B661F78
:10228000771F881F991F1A9469F76095709580953C
:1022900090959B01AC01BD01CF010895EE0FFF1F8A
:0C22A0000590F491E02D0994F894FFCF14
:1022AC00FFFFFFFF00E100000000000000C1808183
:1022BC000000004661696C656420746F2072656172
:1022CC00642066726F6D204448540022696E223A75
:1022DC00207B002268756D6964697479223A20004C
:1022EC002C002274656D7065726174757265223A8A
:1022FC0020002C20226F7574223A207B007D7D00FB
:10230C00000000009C05E805C305C805CB05DB05EE
:10231C00B2050000000041077808E3062107B50666
:10232C00CF06C1060D0A006E616E00696E66006F05
:04233C0076660000C1
:00000001FF
